:020000040800F2
:100000008C040020915D0200674B0000674B0000EC
:10001000674B0000674B0000674B000000000000CA
:10002000000000000000000000000000954B0000F0
:10003000954B000000000000954B00003F4B000076
:10004000954B0000954B0000954B0000954B000030
:10005000954B0000954B0000BD4B0000E54B0000A8
:100060000D4C0000354C00005D4C0000954B00002D
:10007000954B0000954B0000954B0000954B000000
:10008000954B0000954B0000834C0000954B000001
:10009000954B0000954B0000954B0000954B0000E0
:1000A000954B0000954B0000954B0000954B0000D0
:1000B000AB4C0000D34C0000FB4C0000954B000003
:1000C000954B0000954B0000954B0000954B0000B0
:1000D000954B0000954B0000954B0000954B0000A0
:1000E000954B0000954B0000954B0000954B000090
:1000F000954B0000954B0000954B0000954B000080
:10010000954B0000954B0000954B0000954B00006F
:10011000954B0000954B0000954B0000954B00005F
:10012000954B0000954B0000954B0000954B00004F
:10013000954B0000954B0000954B0000954B00003F
:10014000954B0000954B0000954B0000954B00002F
:10015000954B0000954B0000954B0000954B00001F
:10016000954B0000954B0000954B0000954B00000F
:10017000954B0000954B0000954B0000954B0000FF
:10018000954B0000954B0000C0050000FFFF1E2DA1
:100190002D2D204D6563726973702D5374656C6CE1
:1001A0006172697320436F7265202D2D2D0007B594
:1001B0009048002B09D000F03DF800F043F800F023
:1001C00028F8426028210160F3E707BD00B589489F
:1001D00000230168282905D1426800F004F800F0E6
:1001E0004EF8F6E700BD03B547F8046D160047F872
:1001F000046D1E0008B400F09FFF08BC013347F8EF
:10020000046D7D4E47F8046D40F2612604F0E4FA77
:1002100003BD03B5013B47F8046D1E0008B400F0B0
:1002200075FF08BC320047F8046D4FF4005604F027
:10023000D3FA03BD03B5714801681E2901D000F04F
:1002400034F803BD816901620169816181680161DE
:1002500001688160C16941624169C161C1684161F0
:100260004168C1601E21016070470FB56148016897
:100270001E2903D0FFF7DEFFFFF7E4FF0FBD02B535
:1002800081680160C168416000E002B50169816078
:100290004169C16081690161C1694161016A81612E
:1002A000416AC1611E21016202BD08B501681E22BA
:1002B0000260082901D20B0004E0282909D1436813
:1002C00000F05BF847F8046D4D4E56EA033603F034
:1002D00032F908BD00B500F009F800F00CF800F0A4
:1002E0000FF800F012F800F015F800BD0FB5434804
:1002F000FFF7DBFF0FBD0FB54248FFF7D6FF0FBD7D
:100300000FB54148FFF7D1FF0FBD0FB53F48FFF7CD
:10031000CCFF0FBD0FB537480168062202601E29C9
:1003200006D147F8046D4CF6407603F0D3F815E09B
:10033000282909D1436847F8046D1E0047F8046D69
:10034000062602F05FFD09E0062907D047F8046D94
:1003500044F20666C9000E4303F0BCF800F001F851
:100360000FBD24481E210162816101618160C1626B
:100370000621016000218162704707B547F8046DCE
:100380001E0000F045F847F8046D1E0002F03AFD2B
:1003900007BD07B5C16A282904D1016B994201D173
:1003A000002307BD0168002918D08168002915D0F5
:1003B0000169002912D0816900290FD0016A002942
:1003C0000CD0036347F8046D1E0047F8046D002647
:1003D00002F018FD2821C162002307BD47F8046D13
:1003E0001E0000F015F847F8046D1E0002F00AFD2B
:1003F00007BD000028000020C00E000048000020BB
:10040000040D47F840000020380000203000002094
:1004100037B536480168826803698469056A062031
:1004200000F00EF8032000F00BF8022000F008F8AE
:10043000012000F005F800232C481E21C16237BDC1
:10044000814209D0824207D0834205D0844203D042
:10045000854201D0030037BD704747F8046D4CF664
:10046000007600B581581E2905D1FFF7D1FF8350D2
:10047000012199400E4300BD00B501681E2904D139
:100480000022FFF7EAFF03F025F800BD00B5816800
:100490001E2907D10822FFF7E0FF0022FFF7E1FF46
:1004A00003F018F800BD00B501691E290AD1102219
:1004B000FFF7D3FF0822FFF7D4FF0022FFF7D1FF99
:1004C00003F008F800BD00B581691E290DD118227E
:1004D000FFF7C3FF1022FFF7C4FF0822FFF7C1FF99
:1004E0000022FFF7BEFF02F0F5FF00BD280000204C
:1004F00000B50168282904D14368FFF73EFF036077
:10050000190000BD00B58168282904D1C368FFF730
:1005100034FF8360190000BD00B50169282904D1AA
:100520004369FFF72AFF0361190000BD3EB58268E9
:1005300003698469056A9A4203D0A24201D0AA42A3
:100540000AD1072A08D847F8046DD600FFF760FFE4
:100550001E43836002F0BEFF3EBD3EB50168826867
:1005600003698469056A914206D0994204D0A14288
:1005700002D0A94200D03EBD47F8046DCE00FFF77F
:1005800047FF1E43036002F0A5FF3EBD00B5FFF725
:1005900076FEFFF76AFEFFF73BFF036000BD01B583
:1005A00006480368013308D00023DB43036047F8A3
:1005B000046D4BF2005602F08DFF01BDD87F012083
:1005C000E40500004202043264757000386847F8A0
:1005D000046D043F3860704700B500F0C3FC00F0C4
:1005E000C1FC00BD020600006202053264726F7039
:1005F000043740CF704700B500F064FC00F062FCA7
:1006000000BD48060000440205327377617007CFD1
:10061000043F386047F8046D043F3A600E007047AD
:1006200000B5FFF750FF026803690360026142688A
:100630004369436042618268836983608261C26802
:10064000C369C360C26100BD70060000620204326B
:100650006E69700007CF043F3860704700B5FFF740
:1006600032FFFFF7DDFFFFF70AFEFFF708FE00BDD0
:100670008A060000440005326F766572B86847F854
:10068000046D043F3860FE687047AE060000440009
:1006900005327475636B07CF043F386047F8046D0B
:1006A000043F3A60043F3960043F38607047D00629
:1006B000000046000432726F74003868B9683A6905
:1006C000B86039613A6079687E60FE68F9607047A9
:1006D000F2060000460005322D726F743868B96862
:1006E0003A6938613960BA60F968FE607E6879609D
:1006F00070471A070000200203323E7201CF01B496
:1007000040B440CF704700B5FFF749FF00F0FDFB54
:1007100000F09DFC00F09BFC00BD4607000020029D
:100720000332723E47F8046D40BC01BC043F3860A0
:10073000704700B5FFF733FF00F0A5FC00F0A3FC05
:1007400000F0E3FB00BD7607000020020332724098
:1007500047F8046D019E47F8046D009E704700B590
:10076000FFF71DFF47F8046D49F6010603F0E9FBAA
:1007700003F0E3FB00BD9C07000020020632726418
:10078000726F700002B0704700B5FFF708FF47F8BE
:10079000046D4BF2020602F09DFE00BDB40700009E
:1007A00042000364322F3868F1077610400808438E
:1007B00038607047CA07000062020364322A386852
:1007C000001876413860704717E0E40700004200E7
:1007D0000464736872003868F107760840080843BB
:1007E00038607047300800006202046473686C006F
:1007F0003868001876413860704700B5FFF746FE4C
:10080000FFF776FEFFF7A9FE00F07FFBFFF770FE13
:10081000FFF7A3FE47F8046D402601F049FD00F004
:1008200074FB47F8046D44F2401601F041FD00BD31
:10083000420800004200046461627300002E07D485
:10084000704760080000420007646E656761746568
:1008500038680021C043F64301304E41386070478C
:10086000B0080000640202642D0007CF121AB141E3
:100870000E00043F3A60704700B5FFF724FE00F019
:1008800099FBFFF735FEFFF768FE00F03EFBFFF730
:100890002FFEFFF762FEFFF7C3FE01F073FC00F0CE
:1008A000A5FB47F8046D44F2801600F031FD00BD51
:1008B000FE080000640202642B0007CF12184E41AC
:1008C000043F3A60704700B5FFF7FDFD00F072FB92
:1008D000FFF70EFEFFF741FE00F017FBFFF708FEE3
:1008E000FFF73BFEFFF79CFE01F031FC00F07EFBC2
:1008F00047F8046D44F2401600F00EFD00BD2809D3
:100900000000610203733E6447F8046DF6177047F8
:1009100000B500F0C5FAFFF720FE47F8046D41F27C
:10092000C07601F0C5FC00BD8609000062020375B7
:100930006D2A3868A0FB06063860704747F8046DDA
:10094000DFF8006500B5FFF7A1FDFFF7D1FDFFF768
:10095000D9FD01680E43816856EA0146FFF78FFC16
:10096000FFF78DFCFFF781FCFFF752FD036056EAAD
:100970000336FFF77AFCFFF74BFD036056EA0326C8
:1009800002F0D9FD00BDA40900006202026D2A0038
:10099000386880FB06063860704747F8046DDFF85A
:1009A000A864CFE7E209000044000375642A07CF7A
:1009B000564341437618010C130C59437618010C29
:1009C00080B292B25143434350430022C91852416E
:1009D0001204B6180A04090C80184E41043F38600E
:1009E0007047740A000044000475646D2A0010B555
:1009F000002447F8046D7E6847F8046D3E69FFF7F0
:100A000098FF310040CF300040CF47F8046D3E687A
:100A100047F8046DFE6803B4FFF78BFF03BC330097
:100A200040CF320040CF47F8046D3E6847F8046D70
:100A30003E690FB4FFF77DFF0FBC9219634140CFB1
:100A400089196241634140CF47F8046D7E6847F8D9
:100A5000046DFE680FB4FFF76CFF0FBC9219634181
:100A600040CF89196241634140CF1E003A607960EE
:100A7000B86010BD960A00004300022A2F0000B59E
:100A800040B440CFFFF784FF47F8046D40BC00F04E
:100A90004CF8043700BDB80A00004300052A2F6D4A
:100AA0006F6400B540B440CFFFF772FF47F8046DA4
:100AB00040BC00F03AF800BDDA0A000043000375BC
:100AC0002A2F00B540B440CFFFF733FF47F8046D3D
:100AD00040BC00F01BF8043700BDFE0A00004300D4
:100AE00006752A2F6D6F640000B540B440CFFFF744
:100AF00020FF47F8046D40BC00F008F800BD1E0B55
:100B00000000430006756D2F6D6F640000B547F857
:100B1000046D002600F019F840CF043700BD3C0BEF
:100B200000004300056D2F6D6F6400B547F8046D3C
:100B3000F61700F032F840CF043700BD8E0B0000EE
:100B400044000675642F6D6F640030B400230022EA
:100B50007968B86835003C684026400049415241F8
:100B60005B41AB4202D804D3A24202D3121BAB4179
:100B70000130013EF1D10E0038607B60BA6030BCBC
:100B8000704730B400237A68B9680020E2E7040CAB
:100B90000000440005642F6D6F6400B5F01719D094
:100BA000FFF756FEFFF733FDF0170CD0FFF750FEAE
:100BB000FFF72DFDFFF7C9FFFFF729FDFFF748FEFF
:100BC000FFF725FD00BDFFF722FDFFF7BEFFFFF792
:100BD0003FFE00BDFFF71BFDF0170ED0FFF738FEFC
:100BE000FFF715FDFFF7B1FFFFF732FEFFF70FFD2F
:100BF000FFF72EFEFFF70BFD00BDFFF708FDFFF727
:100C0000A4FF00BD1A0C0000440002642F0000B5D0
:100C1000FFF7C3FFFFF71EFD00BD620C000044009C
:100C200002662A0000B5F0170DD0FFF711FEFFF79E
:100C3000EEFCF0170DD0FFF70BFEFFF7D8FE40CF0C
:100C400001CF386000BDFFF7E2FCF017F5D0FFF7E9
:100C5000FFFDFFF7CCFE40CF01CF3860FFF7F8FD76
:100C600000BDAE0C0000440002662F0000B5F01776
:100C70000ED0FFF7EDFDFFF7CAFCF0170ED0FFF71F
:100C8000E7FDFFF7C4FCFFF77CFFFFF7E3FC00BDC7
:100C9000FFF7BDFCF017F4D0FFF7DAFDFFF7B7FC64
:100CA000FFF76FFFFFF7D4FDFFF7D4FC00BDF60C94
:100CB000000020020232210006CF3160726040CF76
:100CC000704700B5FFF7EFFB0168426806B400F01B
:100CD000EEFDFFF7CAFA06BC0160282906D047F8E6
:100CE000046D46F2400600F0E6FD00BD04324260AD
:100CF00000F0DDFD00BD400D00002002023240008A
:100D0000043F706838603668704700B500F0C8F876
:100D1000016828290AD047F8046D46F6400600F01D
:100D2000A7FD00F0F2F800F09FFD00BD416804311E
:100D3000416000F099FD00F0E8F800F095FD00BD7D
:100D4000540D000044000364753C07CF121AB141F2
:100D5000B6417047680D000044000364753E07CF3C
:100D6000801A8E41B64170477E0D00004400026437
:100D70003C0007CF121AB1410CDB002670479A0DD8
:100D80000000440002643E0007CF801A8E4101DB60
:100D9000002670470026F6437047B60D0000620239
:100DA0000364303C0437F617704700B500F0C0F814
:100DB00000F03CFB00BDDE0D000062020364303D2C
:100DC00001CF0643013EB641704700B547F8046DB8
:100DD00044F2003600F0A0FA00F002FB00BD040E61
:100DE0000000440203643C3E07CF50404E4006439F
:100DF000013EB641F643704700B500F015F800F02B
:100E000003FB00BD4C0E0000440202643D0007CF0E
:100E100050404E400643013EB641704700B500F0D9
:100E200003F800F0DDFA00BD00B5FFF74CFB00F061
:100E3000C1F800F0C3F900F0D9F800F0BFF900F0F4
:100E4000B0F900BD0000A0FB000080FB5E0E0000BA
:100E500020000373704047F8046D3E0070476E0E2B
:100E60000000200003737021370040CF7047800ED0
:100E7000000020000372704047F8046D6E46704712
:100E8000900E0000200003727021B54640CF7047DD
:100E9000B40E000061020364757047F8046D70477A
:100EA00006B5FFF7E9FA01684268FFF7DEF901606D
:100EB000426006BDE00E000061020464726F7000C3
:100EC00040CF704700B501681E2906D147F8046D70
:100ED00043F2047602F0FEFA00BDFFF7D0F900BD40
:100EE000F60E00006100043F64757000002E01D012
:100EF00047F8046D7047220F0000620204737761A7
:100F0000700039683E600E0070470CB5FFF7BEFAFE
:100F100002688368036082604268C3684360C2609D
:100F20000CBD500F00006202036E697004377047F9
:100F300000B5FFF7A1FA81681E2902D0FFF7A5F9D5
:100F400000BD47F8046D43F2047602F0C3FA00BD19
:100F5000780F00006202046F7665720047F8046D36
:100F60007E68704700B5FFF791FA8168C268FFF7A5
:100F70007CF90160426000BD9E0F000062020474B3
:100F800075636B0001CF083F7E603860704700B525
:100F9000FFF77CFAFFF784FF00F028F800BDD40FBC
:100FA0000000630203726F7403CF083F78603E60F5
:100FB0000E0070470EB5FFF776FA01688268036984
:100FC0008160026103604168C2684369C160426137
:100FD00043600EBDF80F00006302042D726F7400B1
:100FE00003CF083F7E6039600600704700B5FFF709
:100FF000E1FFFFF7DFFF00BD0A10000020000470D2
:1010000069636B0057F826607047221000000000EB
:101010000564657074684F49C91B47F8046D8E08F4
:1010200070473E100000000006726465707468002E
:1010300047F8046D6E464849891B8E087047741046
:1010400000002002023E720040B440CF704700B55D
:10105000FFF7A5FAFFF710FAFFF74AFA47F8046D11
:101060004BF2004601228A40164302F033FAFFF7A2
:1010700006F900BDAA100000200202723E0047F8E7
:10108000046D40BC704700B5FFF789FAFFF7EDF833
:10109000FFF7BEF9036047F8046D4BF600460122E6
:1010A0009A40164302F016FA00BDC8100000200254
:1010B0000272400047F8046D009E704700B5FFF7CC
:1010C0006EFA02F03AFF00BDEC100000200205723B
:1010D00064726F7001B0704700B5FFF760FA47F8AF
:1010E000046D4BF2010602F0F5F900BD001100009D
:1010F000200005727069636BB6006E4436687047F5
:101100002C110000000004726F6C6C00002E01D1E5
:1011100040CF7047B0003958C019031F1A680260E9
:101120000438013EF9D104370E0070475C1100000D
:101130000000052D726F6C6C002E01D140CF7047FE
:10114000386839464A680A600431013EFAD10860BD
:1011500040CF70478C0300208C04002076110000E3
:10116000620203616E6401CF0640704747F8046D68
:1011700044F20006D0E0921100006202036269634B
:1011800001CFB0430600704747F8046D44F2803643
:10119000BEE0AC1100006202026F720001CF064394
:1011A000704747F8046D44F20036B5E0C611000000
:1011B000620203786F7201CF4640704747F8046DB2
:1011C00044F24006A8E0DE1100006202012A01CFCD
:1011D0004643704747F8046D44F240369CE01212D3
:1011E0000000610203636C7AB6FA86F6704700B5B8
:1011F000FFF742F947F8046D704EFFF779F90E4397
:1012000056EA0146FFF7C2F956EA032602F093F9BF
:1012100000BD22120000610003726F725FEA760661
:10122000704734120000610003726F6CB61956F1FA
:10123000000670476C1200006202076172736869F1
:10124000667401CF30410600704700B547F8046D61
:1012500044F2001647F8046D41F20006FFF716F954
:1012600041681F292AD91F21416027E096120000FA
:101270006202067273686966740001CFF04006006E
:10128000704700B547F8046D44F2C00647F8046D96
:1012900040F6000612E0D01300006202066C73688C
:1012A0006966740001CFB0400600704700B547F88A
:1012B000046D44F2800647F8046D0026FFF7E6F857
:1012C0000168282903D040CF00F022F800BD043780
:1012D0004168FEF7D4FF002901D140CF00BD1F298E
:1012E0000AD889010E430268D2001643FFF74EF96F
:1012F0001E4302F0EFF800BD40CFFFF747F947F873
:10130000046D42F200061B021E4302F0E3F800BD2A
:101310000FB5FFF7BBF80CE00FB5FFF7B7F80168A2
:10132000062901D1FFF7F1FD8268282A01D1FFF7D4
:10133000ECFDFFF7E7F8016828291ED147F8046D96
:10134000466801F0ABFC02CF002E40CF15D0B6F5B9
:10135000804F01D11A4E1EE044F24002964201D164
:10136000184E18E0B6F5864F01D1174E13E04FF432
:101370008742964201D1154E0DE0FFF7D7F8FFF7EF
:10138000B7F8C90082680E43164302F0A3F8FEF7CF
:1013900076FF0FBD0FB50E43816856EA0146FEF792
:1013A0006EFFFEF76CFFFEF760FFFFF731F803609A
:1013B00056EA032602F0BFF80FBD000080F0B0FA35
:1013C000000010F0000090F0000050F0000030F03D
:1013D000F6130000610202303D00013EB641704745
:1013E00000B500F0FAF800F020FFFEF748FF4FF4D8
:1013F0005241816200BD1E140000610203303C3E78
:10140000013EB641F643704700B500F0E6F800F043
:101410000CFFFEF734FF4FF45341816200BD4614C8
:101420000000610202303C00F617704700B500F082
:10143000D4F847F8046D41F2C07600F039FF4FF45C
:101440005541816200BD5C14000060000474727537
:10145000650047F8046D0026F643704770140000DD
:1014600060000566616C736547F8046D002670477F
:10147000961400004202023E3D0001CFB042EADA7B
:101480000026704747F8046D4DF6003647F8046DA6
:101490004DF60026ADE0BC1400004202023C3D00C7
:1014A00001CFB042D7DD0026704747F8046D4DF6F6
:1014B000004647F8046D4DF600569AE0E01400002F
:1014C0004202013C01CFB042C5DB0026704747F81D
:1014D000046D4DF6002647F8046D4DF6003688E0A1
:1014E000041500004202013E01CFB042B3DC0026E9
:1014F000704747F8046D4DF6005647F8046D4DF6F9
:10150000004676E02A150000620203753E3D01CFD9
:10151000861BB641F643704747F8046D4DF200361E
:1015200047F8046D4DF2002663E05015000062029A
:1015300003753C3D01CF361AB641F643704747F874
:10154000046D4DF6000647F8046D4DF6001650E0A8
:1015500074150000620202753C0001CF861BB64183
:10156000704747F8046D4DF2002647F8046D4DF2C0
:1015700000363EE098150000620202753E0001CF81
:10158000361AB641704747F8046D4DF6001647F815
:10159000046D4DF600062CE0BA1500006202023C14
:1015A0003E0001CF811B361A0E43704747F8046D89
:1015B0004DF2000647F8046D1BE01A1700006202A6
:1015C000013D01CF361A013EB641704747F8046D20
:1015D0004DF2001647F8046D0BE000B5FEF74CFF26
:1015E000FEF784FEFEF787FEFEF78AFEFEF78AFF0F
:1015F00000BD00B5FEF74AFFFEF778FEFEF77BFE62
:10160000FEF78AFF8268282A04D1FFF77EFC39683A
:101610003E600E4640CF016828291DD14168FF2950
:1016200007D847F8046D42F600060E4381680902A8
:101630001AE047F8046D466801F030FB02CF002E37
:1016400040CF09D047F8046D6A4E0E43816856EAD0
:10165000014601F070FF0AE0FEF74AFF47F8046D0B
:1016600044F28026C90016430E4301F033FFFEF713
:1016700006FEFEF704FE866240CF00BD0FB55E4851
:10168000816A002935D047F8046D866A002181629D
:10169000310AD52901D140CF0FBDFEF7E6FDFEF797
:1016A000B7FE0360D22904D14FF4834600F000FE58
:1016B0000FBDD32906D14FF4834600F0F9FD00F0A9
:1016C0000AFE0FBD023601F005FF47F8046D42F235
:1016D000000600F00FF800F0FEFD47F8046D4EF232
:1016E000000601F0F7FE47F8046D42F2000600F034
:1016F00001F80FBD00B5FEF7BFFEFEF72EFF016833
:1017000009020E4301F0E6FE00BD00B5816A090A38
:10171000D52901D1FEF7B3FD00BD381700006202E4
:10172000036D696E01CFB04200DC0600704747F8D8
:10173000046D4DF600362DE0561700006202036D71
:10174000617801CFB04200DB0600704747F8046DB6
:101750004DF600461EE076170000620204756D61CA
:10176000780001CFB04200D30600704747F8046DFF
:101770004DF600060EE0FC170000620204756D696C
:101780006E0001CFB04200D80600704747F8046DE4
:101790004DF2003600B5FEF779FE0168826891428D
:1017A00003D140CFFEF771FD00BD062A01D1FFF73E
:1017B000ACFB0168282901D1FFF7A7FBFEF7CDFE9E
:1017C000FEF7A0FEC900026847F8046D44F28026C7
:1017D0000E43164301F07EFE01F07CFE47F8046DD7
:1017E00044F200660E43164301F074FEFEF74DFD11
:1017F00000BD0000000FB0F1280000203A180000E2
:101800000000046D6F76650007B5310040CF3200EF
:1018100040CF00290FD0B2420DD006D3013E013A8D
:10182000705C50540139FBD105E0307810700136FE
:1018300001320139F9D140CF07BD5C18000000002A
:101840000466696C6C00300040CF310040CF002945
:1018500002D001397054FCD140CF70479E1800006F
:10186000200201403668704747F8046D46F60006CE
:1018700000B5FEF701FE0368282B08D143687C21E0
:10188000194009010E437C218B43FEF782FDDB00EA
:101890001E43FEF77BFE1E4301F01CFE00BDF61842
:1018A00000002002012103CF30600E00704747F88E
:1018B000046D46F2000600B5FEF7E8FD0368282B2C
:1018C00009D143687C21194009010E437C218B43D7
:1018D000FEF75FFD0360DB001E438368282B02D107
:1018E000C368FEF74AFD1E4301F0F4FDFEF7C7FC96
:1018F000FEF7C5FC00BD2C1900002002022B2100C0
:1019000003CF3268121832600E00704700B5FEF740
:10191000BDFDFFF7C5FAFFF7A7FFFFF74BFB00F090
:1019200016FCFFF7F2FAFFF7C2FF00BD70190000C6
:101930002002026840003688704700B5FEF79CFD23
:1019400047F8046D48F600060368282B08D1436861
:101950003E21194049010E433E218B43FEF719FDFC
:10196000DB001E43FEF712FE1E4301F0B3FD00BD77
:10197000CA19000020020268210003CF30800E0047
:10198000704700B5FEF782FD47F8046D48F2000687
:101990000368282B09D143683E21194049010E43B1
:1019A0003E218B43FEF7F5FC0360DB001E4383689A
:1019B000282B02D1C368FEF7E0FC1E4301F08AFD2C
:1019C000FEF75DFCFEF75BFC00BD001A0000200284
:1019D00003682B2103CF3288121832800E00704723
:1019E00000B5FEF753FDFFF75BFAFFF7A6FFFFF721
:1019F000E1FA00F0ACFBFFF788FAFFF7C2FF00BD89
:101A0000441A00002002026340003678704700B597
:101A1000FEF732FD47F8046D47F600060368282BF1
:101A200008D143681F21194089010E431F218B43B0
:101A3000FEF7AFFCDB001E43FEF7A8FD1E4301F0DE
:101A400049FD00BD9E1A000020020263210003CF61
:101A500030700E00704700B5FEF718FD47F8046DB2
:101A600047F200060368282B09D143681F2119405B
:101A700089010E431F218B43FEF78BFC0360DB00C3
:101A80001E438368282B02D1C368FEF776FC1E43F1
:101A900001F020FDFEF7F3FBFEF7F1FB00BDD41AC9
:101AA0000000200203632B2103CF3278121832701A
:101AB0000E00704700B5FEF7E9FCFFF7F1F9FFF7FC
:101AC000A6FFFFF777FA00F042FBFFF71EFAFFF7D9
:101AD000C2FF00BD141B00002002046269732100D4
:101AE00003CF3268024332600E00704700B5FEF744
:101AF000CDFCFFF7D5F9FFF7B7FEFFF75BFA47F824
:101B0000046D44F20036FFF707FCFFF7FEF9FFF71C
:101B1000CEFE00BD541B0000200204626963210058
:101B200003CF3268824332600E00704700B5FEF783
:101B3000ADFCFFF7B5F9FFF797FEFFF73BFA47F863
:101B4000046D44F28036FFF7E3FBFFF7DEF9FFF7A1
:101B5000AEFE00BD941B0000200204786F722100CD
:101B600003CF3268424032600E00704700B5FEF786
:101B70008DFCFFF795F9FFF777FEFFF71BFA47F8A3
:101B8000046D44F24006FFF7C7FBFFF7BEF9FFF70D
:101B90008EFE00BDCA1B0000200204626974400072
:101BA00001CF3668064018BF4FF0FF36704700B5CA
:101BB000FEF76CFCFFF758FE47F8046D44F2000690
:101BC000FFF7AAFBFFF720FC00BD0A1C0000200263
:101BD00005686269732103CF3288024332800E00A8
:101BE000704700B5FEF752FCFFF75AF9FFF7A5FE64
:101BF000FFF7E0F947F8046D44F20036FFF78CFB7D
:101C0000FFF783F9FFF7BDFE00BD4A1C000020026C
:101C100005686269632103CF3288824332800E00F7
:101C2000704700B5FEF732FCFFF73AF9FFF785FE83
:101C3000FFF7C0F947F8046D44F28036FFF768FB00
:101C4000FFF763F9FFF79DFE00BD8A1C000020022C
:101C50000568786F722103CF3288424032800E00CF
:101C6000704700B5FEF712FCFFF71AF9FFF765FEA3
:101C7000FFF7A0F947F8046D44F24006FFF74CFB6C
:101C8000FFF743F9FFF77DFE00BDC01C00002002F6
:101C900005686269744001CF3688064018BF4FF06E
:101CA000FF36704700B5FEF7F1FBFFF746FE47F839
:101CB000046D44F20006FFF72FFBFFF7A5FB00BD04
:101CC000001D0000200205636269732103CF327892
:101CD000024332700E00704700B5FEF7D7FBFFF7E6
:101CE000DFF8FFF794FEFFF765F947F8046D44F25B
:101CF0000036FFF711FBFFF708F9FFF7ACFE00BD58
:101D0000401D0000200205636269632103CF327821
:101D1000824332700E00704700B5FEF7B7FBFFF745
:101D2000BFF8FFF774FEFFF745F947F8046D44F27A
:101D30008036FFF7EDFAFFF7E8F8FFF78CFE00BDFD
:101D4000801D000020020563786F722103CF327876
:101D5000424032700E00704700B5FEF797FBFFF768
:101D60009FF8FFF754FEFFF725F947F8046D44F29A
:101D70004006FFF7D1FAFFF7C8F8FFF76CFE00BD89
:101D8000DE1D0000200205636269744001CF3678D1
:101D9000064018BF4FF0FF36704700B5FEF776FBE0
:101DA000FFF735FE47F8046D44F20006FFF7B4FA7A
:101DB000FFF72AFB00BD00F02CFE1E466C61736825
:101DC0002063616E6E6F742062652077726974742F
:101DD000656E2074776963650A0002F00DBEA41E6B
:101DE00000000000083136666C61736821003FB561
:101DF0000F20304015D000F00CFE223136666C61A9
:101E0000736821206E656564732031362D616C69BD
:101E1000676E656420616464726573730A0002F022
:101E2000EBBD30680130C6D170680130C3D1B068F5
:101E30000130C0D1F0680130BDD14FF00062B6185A
:101E4000104A114B1360114B1360114A01231360A8
:101E500008CF04CF02CF01CF01C602C600F01AF8A6
:101E600004C608C600F016F8094A10880121884304
:101E70001080074A10684FF000410843106040CFBF
:101E80003FBD00000820024023016745AB89EFCD2C
:101E90001420024003B42149088801210840FAD1E6
:101EA00003BC70473C1F000000000E666C61736845
:101EB000706167656572617365000FB5300040CF72
:101EC0004FF41833984228D3154A164B1360164B1B
:101ED0001360164A022313600821C84040F6F872C6
:101EE000104002210843114A10800120104A10803E
:101EF0000A4A138801201840FBD10E4A8023137030
:101F00000D4A116802B44FF4C060814311604FF470
:101F1000C0500143116002BC11600FBD122002408D
:101F20000820024023016745AB89EFCD1420024011
:101F3000162002401720024000200240BE1F000071
:101F400000000A6572617365666C617368004FF426
:101F5000183072B64FF480114FF6FF720388934227
:101F60001CD047F8046D060047F8046D00F051FDE1
:101F700010457261736520626C6F636B2061742021
:101F8000200000F0B9FD00F044FD0C2066726F6D7A
:101F900020466C6173680A00FFF78FFF02308842A9
:101FA000DCD100F036FD1246696E69736865642EF7
:101FB00020526573657420210A0002F0AEFDDA1F1D
:101FC000000000000E6572617365666C617368667F
:101FD000726F6D00300040CFBBE7FC1F00000000B7
:101FE00009696E6974666C61736854484FF42071B6
:101FF0000022027001300139FBD17047E42000005B
:1020000000000768666C6173682130B5320040CF0C
:10201000500813D300F0FDFC1E68666C61736821E4
:10202000206E65656473206576656E2061646472F8
:1020300065737365732E0A0002F0DEBC4FF418332B
:102040009A4210D200F0E5FC1943616E6E6F742065
:10205000777269746520696E746F20636F72652092
:10206000210A02F0C9BC130934482021046824095C
:102070009C4226D014300139F8D130482021046820
:10208000002C17D014300139F9D100F0C2FC2154D2
:102090006F6F206D616E7920736361747465726512
:1020A0006420466C617368207772697465732E0AC8
:1020B00002F0A2BC1B010360013941608160C16074
:1020C00001610F2111400431465240CF01680131B6
:1020D00001600F221140082903D100F01AF8FFF720
:1020E00086FE30BD4021000000000A666C757368F2
:1020F000666C6173680000B5104820210268002AF0
:1021000003D000F006F8FFF772FE14300139F5D164
:1021100000BD47F8046D466847F8046D866847F8C7
:10212000046DC66847F8046D066947F8046D0F260C
:10213000F643026816400022026070478C040020BB
:10214000762100006202012B01CF3618704700B5DE
:10215000FEF79CF947F8046D43F2000647F8046D5A
:10216000C94E47F8046D41F600068168282917D149
:10217000FEF7CBFE14E01C2200006202012D01CF0D
:10218000861B704700B5FEF781F947F8046D43F6EA
:10219000000647F8046DBD4E47F8046D41F6002671
:1021A000FEF7B0F90168282927D14168FF290CD82A
:1021B00040CF40CFFEF7BAF90E43816809020E43C3
:1021C00001F088F9FEF75BF800BD47F8046D0E00DA
:1021D00000F064FD02CF002E40CF0ED040CF043778
:1021E0000E43816856EA0146FEF749F8FEF7CEF93C
:1021F00056EA032601F09FF900BD04370437FEF7C5
:1022000077F989018268D2000E431643FEF737F84A
:10221000FEF7BCF91E4301F05DF900BD3422000059
:10222000610202312D00013E704747F8046D41F60E
:1022300040663DE04C220000610202312B00013675
:10224000704747F8046D41F6404631E064220000D3
:10225000610202322D00023E704747F8046D41F6DC
:10226000806625E07C220000610202322B000236EB
:10227000704747F8046D41F6804619E09622000049
:1022800061020563656C6C2B0436704747F8046D7A
:1022900041F600560CE0C82200006102066E656738
:1022A000617465007642704747F8046D44F2402639
:1022B00000B5FEF7E1F80168C9000E43FEF766F9C4
:1022C0001E4301F007F900BDE02200006102036E29
:1022D0006F74F643704747F8046D44F2C036E7E781
:1022E000F82200006102037368727608704747F8AD
:1022F000046D40F64006DBE708230000610203732B
:10230000686C7600704706E01E230000610202320E
:102310002A007600704747F8046D4026C8E7362348
:10232000000061020563656C6C73B600704747F886
:10233000046D8026BCE74E230000610202322F00AC
:102340007610704747F8046D41F24006B0E78E23DF
:102350000000610203616273F0173618464070474F
:1023600000B5FEF789F847F8046D00260168C9003A
:102370000E43FEF70BF91E4301F0ACF847F8046D6D
:102380004DF2005601F0A6F8FFF78EFF00BDAC231A
:102390000000420005752F6D6F6401CF3100B0FB66
:1023A000F6F67143401A043F38607047CA230000B4
:1023B0004200042F6D6F640001CF310090FBF6F6F0
:1023C0007143401A043F38607047DE23000042002A
:1023D000036D6F6400B5FFF7EFFF40CF00BD1E2413
:1023E00000006202012F01CF90FBF6F6704700B5A6
:1023F000FEF74CF8FEF77CF8FEF784F847F8046D1A
:10240000234E01680E43816856EA0146FDF737FF07
:10241000FEF7BCF856EA032601F08DF800BD322421
:1024200000006100046576656E00012030403618BA
:1024300070474A240000810004626173650047F818
:10244000046D144E70470A00000060240000000074
:102450000662696E617279000E4802210160704760
:1024600076240000000007646563696D616C0948AB
:102470000A2101607047F4240000000003686578B9
:102480000448102101607047000010F10000B0F115
:10249000F0F090FBFC7F0120A749FF200860A749CE
:1024A0004FF480400860A6494FF4002008604FF0C8
:1024B0009041A4480860A44988200860A3494FF4CB
:1024C000EE600860A24923200860A2490860A24982
:1024D0004FF480500860A1490860A1490D200860B0
:1024E000A049086070479A4840F2A11101609948DC
:1024F0000160704710250000810009686F6F6B2D27
:10250000656D697447F8046D974E7047FA250000B1
:102510002C250000810008686F6F6B2D6B657900BA
:1025200047F8046D914E7047202600004A250000B0
:1025300081000A686F6F6B2D656D69743F0047F805
:10254000046D8B4E70474A2600006625000081000E
:1025500009686F6F6B2D6B65793F47F8046D854E89
:102560007047762600008425000081000A686F6F9E
:102570006B2D70617573650047F8046D7E4E704772
:10258000CA4A00009A250000000004656D697400C5
:102590000FB5754800F026F80FBDAE25000000000D
:1025A000036B65790FB5714800F01CF80FBDC025AD
:1025B0000000000005656D69743F6D48006887463E
:1025C000D22500000000046B65793F00694800686F
:1025D0008746E82500000000057061757365664850
:1025E00000688746006887460E26000000000B73CF
:1025F000657269616C2D656D697400B500F025F830
:10260000002E40CFFAD05D4A167040CF00BD36266E
:10261000000000000A73657269616C2D6B657900BA
:1026200000B500F028F8002E40CFFAD047F8046D2E
:10263000534A167800BD6426000000000C736572D2
:1026400069616C2D656D69743F0000B5FFF7C7FFC8
:1026500047F8046D00264B4801688020014000D0F7
:10266000F64300BD9026000000000B73657269619F
:102670006C2D6B65793F00B5FFF7B1FF47F8046D2E
:102680000026404801682020014000D0F64300BDEC
:10269000B626000000000B6272696467652D656DE7
:1026A000697400B500F025F8002E40CFFAD0364A04
:1026B000167040CF00BDDE26000000000A6272697D
:1026C0006467652D6B65790000B500F028F8002E71
:1026D00040CFFAD047F8046D2C4A167800BD0C277D
:1026E000000000000C6272696467652D656D697495
:1026F0003F0000B5FFF773FF47F8046D002624483C
:1027000001688020014000D0F64300BD94270000FE
:1027100000000B6272696467652D6B65793F00B5D7
:10272000FFF75DFF47F8046D002619480168202077
:10273000014000D0F64300BD4C1002406010024042
:1027400058100240FAFFEB6B2000004824000048BC
:102750000C3801400C4C004008380140084C004047
:1027600000380140004C0040F87F0120F47F012038
:10277000F07F0120EC7F0120E87F01202838014014
:10278000243801401C380140284C0040244C0040B3
:102790001C4C0040B8270000000007636578706596
:1027A000637400B5386801B40130386000F00BF88C
:1027B00001BC067040CF00BD2E280000000006615D
:1027C00063636570740000B502CF01390022FFF722
:1027D000E9FE300040CF7F2809D0202819D20928EF
:1027E00016D00A281FD00D281DD00828EFD1002AA6
:1027F000EDD000F00EF903082008002AE7D0885C2D
:10280000013A80230340E2D040230340F5D0DEE7C5
:102810002020B242DBD247F8046D0600FFF7B8FE75
:1028200001328854D3E7160000F0A2F800BD40281A
:10283000000040000374696247F8046D294E704738
:10284000562800008100033E696E47F8046D264E4D
:102850007047000000007C28000082000E63757243
:1028600072656E742D736F757263650047F8046D41
:102870001E4E704700000000C40000209828000091
:10288000000009736574736F75726365174802CF32
:102890000660416040CF7047B62800000000067314
:1028A0006F757263650047F8046D104E043F7068E1
:1028B000386036687047F0280000000005717565C3
:1028C00072790FB5084800210160FFF7B5FF47F89E
:1028D000046D47F8046DC826FFF775FFFFF7D6FFB4
:1028E0000FBD0000C4000020E47F0120DC7F012038
:1028F0003E290000000007636F6D706172650FB5BF
:10290000310040CF01CF884202D040CF00260FBD1A
:1029100002CF002810D001380A5C335C412A02D370
:102920005B2A38BF2032412B02D35B2B38BF2033C8
:102930009A42EED000260FBD0026F6430FBD522965
:10294000000000000263720000B500F062F8010AA6
:1029500000BD64290000000002626C0047F8046DAD
:1029600020267047782900000000057370616365B8
:1029700047F8046D20260BE6982900000000067336
:1029800070616365730000B5002E03DDFFF7F0FF93
:10299000013EFBD140CF00BDA82900005000065BDE
:1029A000636861725D0005E0C029000000000463F7
:1029B0006861720000B501F0A9FC40CF367800BD17
:1029C000D02900005004012847F8046D292606E0AC
:1029D000EA2900005004015C47F8046D002600B5A8
:1029E00001F09EFC043740CF00BD2E2A00001000ED
:1029F000022E22009B4800B547F8046D060000F047
:102A00005EFA47F8046D222601F08AFC00F0A3FD6F
:102A100000BD0AB447F8046D7646013E33780121C3
:102A2000013319405B181EEB030E0ABC39E0542A2F
:102A300000001000026322008B48DCE747F8046DB9
:102A40007646013E33780121013319405B181EEBB5
:102A5000030E70477E2A0000100002732200834894
:102A6000C9E747F8046D764647F8046D013E3678AD
:102A70000121731C19405B181EEB030E7047962A48
:102A80000000000005636F756E74013647F8046D31
:102A9000013E36787047BE2A000000000563747955
:102AA000706501B53078002807D0013647F8046D0D
:102AB0003678FFF76DFD0138F7D140CF01BDEC2A24
:102AC00000000000047479706500310040CF3000D0
:102AD00040CF00B5002908D0002247F8046D865C7D
:102AE000FFF756FD01329142F7D100BD262B0000C1
:102AF0000000046865782E0007B5310040CF202023
:102B00000F22043847F8046D0E00C6401640092E07
:102B100001D9373600E03036FFF73AFD0028F0D112
:102B2000FFF726FF07BD362B0000000003682E7359
:102B30001FB54F4C0EE0462B0000000003752E73AE
:102B40001FB54C4C06E0C42B00000000022E7300A1
:102B50001FB5494C4949C91B8908494A106803B443
:102B60000A201060FFF755FF08537461636B3A2029
:102B70005B0047F8046D0E0001F0A1FDFFF749FF6F
:102B8000025D200003BC3E4A106000290AD03D4A85
:102B9000106806B447F8046D0600A04706BC043A66
:102BA0000139F5D1FFF735FF0620544F533A200085
:102BB00047F8046D3600A047FFF72BFF04202A3E9C
:102BC0000A001FBD882C0000000005776F72647337
:102BD00000B5FFF71EFF010A00F025FFFFF719FF00
:102BE00009416464726573733A2047F8046DFFF716
:102BF00083FFFFF70EFF064C696E6B3A200047F823
:102C0000046D3668FFF778FFFFF703FF07466C6136
:102C100067733A2047F8046DB688FFF76DFFFFF73A
:102C2000F8FE06436F64653A2000B01D00F037FFE0
:102C300047F8046D0600FFF75FFFFFF7EAFE064E58
:102C4000616D653A200047F8046D0636FFF729FFED
:102C5000FFF7DFFE010A00F0FFFE300040CFBDD0DD
:102C600040CF00BD122A00003C2A0000622A00006A
:102C7000F92A0000AF460000BF4600008C03002088
:102C8000FC7F012088030020EC2D000000000D31A6
:102C900032626974656E636F64696E670FB5FF2E8B
:102CA00004D847F8046D5FF0FF360FBD16F0FF1033
:102CB000B0420ED14FF6FF710840310C814208D16D
:102CC00016F0FF0656F4805647F8046D5FF0FF36A5
:102CD0000FBD16F0FF20B0420FD14FF6FF71084034
:102CE000310C814209D1360A16F0FF0656F400561F
:102CF00047F8046D5FF0FF360FBDFF223100114031
:102D0000300A1040884210D1300C104088420CD15B
:102D1000300E1040884208D116F0FF0656F4405697
:102D200047F8046D5FF0FF360FBD30000021013120
:102D3000001850F100007FF07F020240802A05D089
:102D40001F29F4D347F8046D00260FBD0829F9D3D5
:102D5000060036F0800611F00100C001064311F0B4
:102D60000E00C002064311F010008005064347F82C
:102D7000046D5FF0FF360FBD47F8046DDFF8A46601
:102D80005FF4704110EA0102120116435FF4006122
:102D900010EA0102D20316435FF4E06110EA010277
:102DA00012011643FF2110EA010216431E43C2E33B
:102DB00047F8046DDFF870665FF0704110EA0102B9
:102DC000120B16435FF0006110EA0102520816432D
:102DD0005FF0E06110EA0102120B16435FF47F011D
:102DE00010EA0102120C16431E43A4E3522E000007
:102DF00000001072656769737465726C697465723E
:102E0000616C2C000FB5330040CF1B02FF2E05D89C
:102E100056F400561E4300F05DFB0FBDFFF73EFF6A
:102E2000002E40CF06D0DFF8040606431E4300F014
:102E300082FB0FBDF643FFF731FF002E40CF06D0D7
:102E4000DFF8EC0506431E4300F075FB0FBDF643AB
:102E50000BE0B22E00000000096D6F76776D6F7683
:102E6000742C0FB5330040CF1B02300040CFFFF76A
:102E700083FF4FF6FF7110EA014001D0FFF798FF82
:102E80000FBD0FB50136300040CF0023FFF774FFB0
:102E9000FFF78EFF06E00FB5013647F8046D0026F8
:102EA000FFF7B0FF47F8046D44F2807600F012FBA4
:102EB0000FBD182F000000000563616C6C2C0FB56E
:102EC000330000F0ACFE300040CF1B1A043BDFF8AB
:102ED00064151940002906D0DFF85C25914202D024
:102EE000BDE80F40D7E740CF5B08DFF8500540F260
:102EF000FF7119400843DB0A40F2FF311940090411
:102F000008439B0A13F001018906084347F8046D42
:102F1000060000F010FB0FBD4E2F00000000086CF3
:102F200069746572616C2C0008B547F8046D4FF642
:102F3000470600F0CFFA47F8046D46F6045600F055
:102F4000C9FA47F8046D0626FFF75CFF08BD722F2B
:102F500000000000066372656174650000B500F052
:102F60003DF842F68F70804747F8046DBEF10106C8
:102F700000BDCE2F0000200005646F65733E42F651
:102F80008F70804747F8046DBEF10106704747F81F
:102F9000046DBEF101064FF000521368DFF8A01473
:102FA00009684FF00050834205D20F2008400628E0
:102FB00005D00231F9E70220084000D00231023189
:102FC0001160FFF75EFF136000F0D8F900BD3830E4
:102FD00000000000073C6275696C647300B500F086
:102FE000A3FB4FF0005001684FF0005291420CD209
:102FF00000F015FE0F200640062E40CF10D047F8F7
:10300000046D362600F066FAF2E700F008FE0220B2
:10301000064040CF04D047F8046D362600F05AFA37
:1030200047F8046D4BF2005600F054FA47F8046D6F
:103030000A2600F0C3FA00BD443000005000035BD4
:10304000275D03E05C3000000000012700B501F0BF
:103050005DF900F07CFD300040CF00BD92300000F3
:10306000300008706F7374706F6E650000B5FFF705
:10307000EDFF47F8046D060039683E600E46FFF725
:1030800053FFFFF751FF47F8046DEE4EFFF717FFB0
:1030900000BDE8300000000007696E6C696E652CA9
:1030A00000B54BF200514BF6005244F27073308879
:1030B000884208D0904208D0984206D047F8046D64
:1030C000060000F007FA0236F1E740CF00BD0EB46B
:1030D0004BF6005244F2707301880230914201D0E5
:1030E0009942F9D10EBC7047FE3000000000047216
:1030F00065742C0047F8046D4BF60056EAE10C317C
:1031000000003000046578697400F3E724310000A2
:103110003000077265637572736547F8046DC84EB9
:103120003668CCE63C31000081000573746174653B
:1031300047F8046DC44E7047000000004E31000097
:103140000000015DC0480021C943016070475E3145
:1031500000001000015BBC480021016070477E3117
:1031600000000000013A00B5B848076000F0DCFA42
:10317000B54801210160B6480021016000BDF03171
:1031800000003008013B00B5B0480168B9420ED0DC
:10319000FFF73FFC1520537461636B206E6F742042
:1031A00062616C616E6365642E0A01F025BCA648FD
:1031B0000068411C10D00B2805D847F8046D40F674
:1031C000200600F012F947F8046D44F2707600F022
:1031D00081F901F017FB05E047F8046D4BF6005646
:1031E00000F078F900F0CAF897480021016000BDAE
:1031F000043200000000076578656375746530006F
:1032000040CF87461C320000100009696D6D65646F
:103210006961746547F8046D1026E6E032320000FB
:10322000500006696E6C696E650047F8046D2026D3
:10323000DBE04C32000010000B636F6D70696C6551
:103240006F6E6C7947F8046D3026CEE06632000070
:1032500050000A302D666F6C6461626C650047F83F
:10326000046D4026C1E08032000050000A312D6616
:103270006F6C6461626C650047F8046D4126B4E0D0
:103280009A32000050000A322D666F6C6461626CE5
:10329000650047F8046D4226A7E0B43200005000F4
:1032A0000A332D666F6C6461626C650047F8046DCB
:1032B00043269AE0CE32000050000A342D666F6C2F
:1032C0006461626C650047F8046D44268DE0E83265
:1032D000000050000A352D666F6C6461626C6500F9
:1032E00047F8046D452680E00233000050000A369E
:1032F0002D666F6C6461626C650047F8046D46264C
:1033000073E01C33000050000A372D666F6C646157
:10331000626C650047F8046D472666E04C33000098
:10332000000008636F6E7374616E740000B500F086
:10333000FBF9FFF7F9FD47F8046D44F2707600F0F1
:10334000C9F8FFF78CFF00F019F800BD6E330000DC
:1033500000000932636F6E7374616E7400B500F023
:10336000E3F939683E600E46FFF7DEFDE1E7DA3348
:103370000000000006736D756467650000B54FF0CE
:10338000005001684FF00052914220D202390A8861
:103390004FF6FF739A4204D147F8046D002600F0FF
:1033A00099F800F06FF800F082F82A48006847F8B2
:1033B000046D06002849096804314FF00052136873
:1033C000116000F087F81360FEF795FE00BD00F075
:1033D00059F847F8046D002608E05C34000000004E
:1033E00008736574666C6167730000B54FF0005038
:1033F00001684FF00052914205D2164801683143EE
:10340000016040CF00BD320040CF13480068043057
:1034100001884FF6FF73994201D1110000E011437A
:10342000018000BD000040F20000C0F200005FF02B
:1034300000007FF00100C0FF0000C0FF00F800F0B6
:1034400014000020FE460000D87F0120100000205C
:103450005C000020200000200400002078340000E0
:10346000410007616C69676E656401203040361861
:1034700002203040361870479E340000000005617D
:103480006C69676E00B54FF0005001680220014082
:1034900004D047F8046D002600F01CF800BDCA34C3
:1034A0000000000008616C69676E31362C0000B5C1
:1034B0004FF0005001680F20014005D047F8046D1F
:1034C000002600F007F8F3E700BD12350000000009
:1034D00002682C000FB5B6B288480168002902D0F6
:1034E000013100D001604FF0005001684FF00052F0
:1034F000914205D247F8046D0E00FEF786FD02E00A
:10350000320040CF0A8047F8046D022600F056F8DA
:103510000FBD2C3500000000012C00B547F8046DEC
:10352000FFF7D8FF360CFFF7D5FF00BD4835000088
:103530000000033E3C2C00B547F8046D360CFFF745
:10354000C9FFFFF7C7FF00BDB035000000000773DB
:103550007472696E672C07B5FF21314040CF30008F
:1035600040CF002905D147F8046D0026FFF7B2FFD0
:1035700007BD47F8046D067836020E43FFF7AAFF31
:103580000130013902290AD347F8046D4678360222
:1035900002781643FFF79EFF02300239F2E7002956
:1035A00000D107BD47F8046D0678FFF793FF07BD0C
:1035B00010360000000005616C6C6F744FF0005015
:1035C00001684FF00052914210D2320040CF89186A
:1035D0004FF48012914219D3FFF71BFA0B466C612E
:1035E00073682066756C6C0A01F006BA320040CF31
:1035F0008918434A1268914208D3FFF70AFA095220
:10360000616D2066756C6C0A01F0F6B90160704757
:1036100036360000000009666F7267657472616D6E
:1036200000B500F028F84FF00050364901603648E8
:103630003649016000BD6236000000000D636F6D09
:1036400070696C65746F72616D3F47F8046D002698
:103650004FF0005000684FF0005188424DD3F643C0
:1036600070478636000000000C636F6D70696C65F2
:10367000746F72616D004FF0005000684FF00051A0
:10368000884213D370471837000000000E636F6D37
:1036900070696C65746F666C617368004FF0005000
:1036A00000684FF00051884200D270471648184910
:1036B00002680B680A6003604FF000501549026809
:1036C0000B680A6003600E480068834215D300B59A
:1036D000FFF79FF923205661726961626C65732060
:1036E000636F6C6C696465207769746820646963D2
:1036F00074696F6E6172790A00BD7047D87F0120CE
:103700002400002030070020040000208801000071
:103710001C000020180000202038000000000828AD
:10372000637265617465290000B500F0EFFD002E3D
:103730000ED1FFF76EF91520437265617465206E36
:1037400065656473206E616D6520210A01F054B9CE
:10375000386847F8046D043F386000F0AFF940CF97
:10376000002E40CF11D0386847F8046D043F386010
:10377000FFF74FF9095265646566696E6520FFF7CA
:10378000A4F9FFF746F9022E2000FFF77BFE4FF069
:10379000005000684FF00051884227D29548002120
:1037A0000160FFF784FE47F8046D0C26FFF706FF63
:1037B00000F035FA47F8046D0626FFF7FFFEFDF727
:1037C0000FFCFFF7C8FE8C4801680A684FF0FF3312
:1037D0009A4208D14FF000521368116047F8046D07
:1037E000FFF79BFE1360066040CF13E000F017FA6E
:1037F000814847F8046D0668FFF78FFE47F8046DAF
:103800004FF6FF76FFF766FE7B48310040CF016040
:10381000FFF7A1FE4FF0005001687848016000BD3D
:10382000383800000000087661726961626C6500DA
:1038300047F8046D012613E05038000000000932FB
:103840007661726961626C6547F8046D022607E073
:103850002E3900000000096E7661726961626C6544
:1038600000B5FFF761FF4FF0005001684FF00052C4
:10387000914234D20F200640B20061480168891A93
:10388000604A91420BD2FFF7C4F80F4E6F74206567
:103890006E6F7567682052414D0A01F0ADB8016046
:1038A00047F8046D0E00FFF73FFB47F8046D44F244
:1038B0007076FFF70FFE300040CF0200002805D0E1
:1038C0000E600431FFF729FE0138F9D147F8046D85
:1038D00080261643FFF789FDFFF750FD00BD00F07D
:1038E0009EF90220064040CF04D147F8046D3626E9
:1038F000FFF7F0FD47F8046D434EFFF71CFE47F855
:10390000046D424EFFF717FE47F8046D44F27076DF
:10391000FFF7E0FD300040CF002803D0FFF7FDFDAA
:103920000138FBD1FFF79BFCFFF728FD00BD103AE3
:1039300000000000076275666665723A00B5FFF721
:10394000F3FE0120304036180220304036184FF088
:10395000005001684FF00052914228D22848016877
:10396000891B284A91420BD2FFF753F80F4E6F7410
:1039700020656E6F7567682052414D0A01F03CB8B2
:10398000016047F8046D0E00FFF7CEFA47F8046DAA
:1039900044F27076FFF79EFDFFF7BFFD47F8046D18
:1039A00040F24016FFF721FDFFF7E8FC00BD00F0F4
:1039B00036F90220064040CF04D147F8046D362680
:1039C000FFF788FD47F8046D0F4EFFF7B4FD47F889
:1039D000046D0E4EFFF7AFFD47F8046D44F27076AC
:1039E000FFF778FDFFF7EAFDFFF739FCFFF7C6FCAC
:1039F00000BD000020000020040000201400002072
:103A000024000020300700203E60043F02367E463E
:103A1000423A000000000F64696374696F6E61725E
:103A20007973746172744FF0005000684FF0005168
:103A300047F8046D884201D24B4E70474B4E3668B2
:103A400070477E3A000000000E64696374696F6E0F
:103A50006172796E6578740003B531684FF0FF309C
:103A6000814207D08879FF2804D00E0047F8046D02
:103A7000002603BD47F8046D0026F64303BDB03AA7
:103A8000000000000A736B6970737472696E6700DE
:103A90003178013101220A4089187618704706B43E
:103AA0000178013101220A408918401806BC70478C
:103AB000C23A000000000466696E64002C48006889
:103AC0008746DE3A0000810009686F6F6B2D6669DA
:103AD0006E6447F8046D274E7047EC3A0000783B5F
:103AE00000000000062866696E64290030B50022D7
:103AF0000023350040CF340040CFFFF794FF4FF64E
:103B0000FF70B188884218D047F8046D0636FEF77A
:103B1000BCFF47F8046D260047F8046D2E00FEF741
:103B2000EEFE002E40CF08D0B01DFFF7B8FF020018
:103B30000B004FF00050824204D2FFF78DFF30009F
:103B400040CFDCD0160047F8046D1E0030BD00B534
:103B50003100386803B4FFF7B1FF03BC3A68002AAC
:103B600001D100F0FDFE00BD88010000040000202E
:103B7000D47F0120D47F0120D83B000000000663E1
:103B80006A756D702C00320040CF310040CF8B1B26
:103B9000043B6FF0FE01194000290ED06FF0FF00CA
:103BA00081420AD0FEF735FF0D4A756D7020746FA3
:103BB0006F206661720A00F01FBF5B10FF210B408F
:103BC000134330001E0000B54FF000521368106020
:103BD000FFF780FC136000BD123C00000000056A86
:103BE000756D702C310040CF300040CF0B1A043B74
:103BF000C4491940002902D0C34A9142D2D15B1076
:103C000040F2FF72134053F4604347F8046D1E0006
:103C1000D9E72A3C0000000004686572650047F897
:103C2000046D4FF0005636687047603D000000009C
:103C30000D666C6173687661722D6865726547F810
:103C4000046DB24E3668704700B547F8046D42F611
:103C50000066FFF73FFC47F8046D4CF64076FFF72F
:103C600039FC00BDDBE700B500F03AF839683E608A
:103C70000E4647F8046D4DF20016FFF784FF00BDB5
:103C800000B500F02DF839683E600E4647F8046D27
:103C90004DF20076FFF777FF00BD00B5FFF7D4FFC8
:103CA00000F01EF839683E600E4647F8046D4DF28C
:103CB0000006FFF768FF00BD00B500F011F8396895
:103CC0003E600E46FFF78EFF00BD00B5FFF7BCFF5C
:103CD000FFF7A5FF47F8046D0226FFF76FFC00BD54
:103CE00000B5FFF79CFF47F8046D0226FFF766FC5E
:103CF00000BD00B5FFF793FFFFF774FF00BD00B5EF
:103D0000FFF78DFF47F8046D4DF20006FFF73BFF0C
:103D100000BD00B5FFF783FF47F8046D4DF20016B4
:103D2000FFF731FF00BD00B5FCF7A6FBFCF7DEFA9C
:103D3000FCF7E1FAFCF7E4FA8168282901D1FCF7E5
:103D4000E1FBFCF7D5FB47F8046D42F600060902DB
:103D50000E43FFF7BFFBFCF792FAFCF7BBFA00BD7E
:103D60008C3D00003000047468656E00052E01D1A2
:103D700040CFBEE7F1B200296DD100B5FFF74FFF8C
:103D800039683E600E46FFF7FEFE00BDA83D00000C
:103D9000300004656C73650000B500F036F8FCF780
:103DA00036FCFFF7E3FF00BDFE3D00003006026970
:103DB000660000B5FFF789FF47F8046D4DF2000675
:103DC00000BD00B5FCF7EBFBFDF79FFC816A002905
:103DD00007D002B4FCF77EFAFFF782FF47F8046DC4
:103DE00040BDFFF7A0FFFFF71AFF47F8046D02265A
:103DF000FFF7E4FB47F8046D4DF2000600BD183EE6
:103E00000000300005616865616400B5FFF768FF78
:103E100047F8046D052600BD323E000030000672F2
:103E200065706561740000B500F05BF8FFF79EFFF8
:103E300000BD763E00003006057768696C6500B508
:103E4000FFF7B7FFFCF7E3FB00BD00B5FFF7B9FFD5
:103E5000FCF7DDFB00BDFEF7DCFD175374727563E4
:103E6000747572657320646F6E2774206D6174635E
:103E7000680A00F0C1BDD63E0000300605756E74BC
:103E8000696C012EE7D140CF07E77047012EE2D1E0
:103E900040CF00B5FDF739FC816A00290DD002B48E
:103EA000FCF718FAFFF71CFF39683E600E4647F82A
:103EB000046D40BCFFF767FE00BDFFF734FFFFF75E
:103EC0000FFF39683E600E4647F8046D4DF200065C
:103ED000FFF759FE00BDEA3E000030000561676152
:103EE000696E012EB7D140CFE6E6103F00003000EA
:103EF00005626567696E00B5FFF7B4FE47F8046DAB
:103F0000012600BD01F8FFFF00F8FFFF240000209C
:103F10002A3F00002002016B47F8046D029E7047A3
:103F200047F8046D49F602060BE0583F00002002F6
:103F3000016A47F8046D009E704747F8046D49F622
:103F4000000600B5FCF791F9FCF762FA03601B026A
:103F50001E43FFF7BFFA00BD843F00002002016945
:103F600047F8046D2600704700B547F8046D40F22D
:103F70002006FCF77AF9FCF74BFA03601E43FFF7C3
:103F8000A9FA00BDC23F00003000056C656176658E
:103F900000B5754801683B00043F1A68043B1A608D
:103FA00008338B42F9D103B4FFF79AFE03BC330008
:103FB00040CF04390B60016004390A6801320A609D
:103FC00000BDD43F0000200006756E6C6F6F70005E
:103FD00030BC70470C4000003000052B6C6F6F70D8
:103FE000032E00D037E740CF00B547F8046D5F4E91
:103FF000FFF756F8FFF744FE1AE014F10044641B83
:10400000A41940CF2C44A4F1004470474E40000056
:104010003000046C6F6F7000032E00D01BE740CFA0
:1040200000B547F8046D524EFFF73AF8FFF71BFE54
:1040300000F052F94C48310040CF016047F8046D60
:104040004C4EFFF72DF800BD0134AC42704796404E
:104050000000300202646F0000B547F8046D464E60
:10406000FFF71EF84048016847F8046D0E0047F856
:10407000046D00260760FFF7F5FD47F8046D032681
:1040800000BD00B500F02FF8ECE730B4340040CFAD
:10409000350040CF70477C4100003002033F646F21
:1040A00000B547F8046D344EFEF7FAFF47F8046D8B
:1040B00044F2AC26FFF70EFA2B48016847F8046D6E
:1040C0000E00FFF70DFE013647F8046D0126264865
:1040D0000760FFF7C7FD47F8046D032600BD00B574
:1040E00000F001F8E2E700B5FCF759FAFCF7CEF969
:1040F000FCF7FCF8FCF7FFF8FCF702F947F8046D51
:104100004BF23046FFF7E6F90168282908D047F856
:10411000046D40F20406C9000E43FFF7DBF907E027
:1041200047F8046D466847F8046D0426FEF76AFEFA
:104130008168282908D047F8046D40F20506C900B7
:104140000E43FFF7C7F907E047F8046DC66847F864
:10415000046D0526FEF756FEFCF791F8FCF78FF884
:10416000FCF7D8F800BD00000C000020FA3F00006A
:1041700048400000D03F00008A4000009C41000001
:10418000300004636173650000B5FCF708FA47F876
:10419000046D002647F8046D082600BDB2410000FA
:1041A0003000033F6F66714809E0013EB64140CFE1
:1041B0007047784200003002026F66006C48082E9B
:1041C00000D048E640CF00B547F8046D0600FEF782
:1041D00067FFFFF785FD39683E600E46013647F8F8
:1041E000046D092647F8046D4CF64076FFF772F926
:1041F00000BD082E00D02EE640CF00B5FCF746F9F2
:10420000FCF774F8FCF777F8FCF77AF847F8046DD8
:1042100044F28026FCF776F90E430268282A1ED164
:104220004268FF2A08D840CF47F8046D42F60006DE
:10423000164309020E4314E047F8046D4668FEF782
:104240002DFD04CF002E40CF06D04A4E164356EA2D
:104250000146FFF770F906E0FCF74AF90A00D200C0
:104260001643FFF737F9FCF70AF8FCF753F8B0E705
:10427000300040CFB0427047AE42000030000565CC
:104280006E646F66092E00D0E5E540CF00B540B4FE
:1042900040CFFFF725FD39683E600E46FFF739FD38
:1042A00047F8046D40BC47F8046D082600BD004384
:1042B0000000300007656E6463617365082E00D0EE
:1042C000C9E540CF00B547F8046D4CF64076FFF7DE
:1042D00001F900F001F800BD00B5300040CF002822
:1042E0000DD003B401213140002903D0013EFFF776
:1042F00006FD01E0FFF7FDFC03BC0138EFE700BD60
:1043000014430000000005746F6B656E47F8046D80
:10431000202605E07C430000000005706172736593
:1043200010B5FEF7C0FA310040CF300040CF124A3E
:1043300012688418202E07D191420FD0835CB342BB
:1043400002D101328418F7E7914207D0835C013231
:10435000B342F9D18618361B013E01E08618361BA0
:10436000043F3C600448026010BD0000AA41000008
:1043700070420000000FB0F1E47F0120BA4300005A
:104380000000056469676974CF4B1B68303E0BD32E
:104390000A2E0BD3073E0A2E06D3242E06D3203E28
:1043A0000A2E01D3242E01D3002670479E42FBD251
:1043B00047F8046D0026F6437047C444000000002F
:1043C000066E756D626572003FB5310040CF701E9C
:1043D0000126012204B4BC4B1B68002400250029DF
:1043E0003CD00130013902782D2A04D101B00022DD
:1043F000D24304B4F3E7232A01D10A23EFE7242AA6
:1044000001D11023EBE7252A01D10223E7E72E2A69
:1044100001D10226E3E72C2A36D047F8046D1600B6
:10442000FFF7B4FF002E40CF2BD047F8046D2600D5
:1044300047F8046D2E0047F8046D1E0047F8046D20
:1044400000260FB4FCF7B3FA0FBC350040CF3400A0
:1044500040CF0022A419554140CFC0E704BC002A38
:1044600004D50022E443ED430134554133002600D6
:10447000012B02D047F8046D2E0047F8046D1E0092
:104480003FBD01B000263FBD2500002402260029C3
:10449000E4D0425C01392E2AF9D047F8046D1600A9
:1044A000FFF774FF002E40CFEBD0043F3C6047F88D
:1044B000046D1E000FB4FCF729FB0FBC340040CF85
:1044C00040CFE4E7E64400000000062E6469676917
:1044D00074000A2E01D230367047242E01D23736AE
:1044E0007047232670471C450000000004686F6C6D
:1044F0006400330040CF754801783F290DD2013167
:1045000001704018012907D001380278013002708B
:10451000013801390129F7D1037070473C4500008B
:10452000000005686F6C643C330040CF6748017839
:104530003F2902D2013101704354704754450000B5
:104540000000047369676E00002E01D440CF7047ED
:104550002D26CEE768450000000002233E005B48A0
:10456000067801303860704780450000000003661F
:10457000235310B5202400F008F8013CFBD110BDF6
:10458000A245000000000266230000B547F8046D54
:104590004D4E3668FCF7CDF9FFF79BFFFFF7C4FFE0
:1045A00000BDBE45000000000223530000B500F02E
:1045B0000AF8002EFBD138680028F8D100BDEA4582
:1045C00000000000012300B547F8046D3E4E366838
:1045D00047F8046D0026FCF7B8FAFCF718F840CF4E
:1045E000FFF777FFFFF785FF00BDFC4500000000E7
:1045F000023C230035480021017070470E46000040
:10460000000002662E0047F8046D202604E05C4698
:104610000000000003662E6E00B510B4340040CFD9
:10462000FCF7B0FCFCF70AF947F8046D0026FFF729
:10463000E1FFFFF7BBFF40CF2C26FFF775FF002CF3
:1046400003D0FFF7A2FF013CFBD110BC40CFFFF726
:104650007BFF47F8046D47F8046D1CE072460000CC
:1046600000000375642E00B5FFF7C4FFFFF79EFF3F
:1046700011E0A4460000000002642E0000B5FCF723
:1046800081FCFCF7DBF8FFF7B5FFFFF78FFFFCF7C6
:104690008BFCFFF759FFFFF762FFFEF716FAFEF7F4
:1046A00067F900BDB6460000000002752E0047F80D
:1046B000046D0026D7E78C4800000000012E47F863
:1046C000046DF617DAE70000FC7F0120840000206B
:1046D00030B5DA4C2568002D01D13D00256030BD94
:1046E00030B5D64C3D00256030BD30B5D34C0025EB
:1046F000256030BDD14B1B68DB1B9B08704700B5A4
:10470000310040CF4FF48050084002D000F0A6F8AE
:1047100000BD4FF48060084001D1FCF7AFFF3200CC
:1047200040CFFFF7D5FF4FF40050084003D047F8C3
:10473000046D160000BDFFF7DDFF8020084006D1A4
:104740004020084009D00F200840834205D347F895
:10475000046D1600FEF753FD00BD4FF400700840D5
:1047600014D0FBF724FD47F8046D160047F8046DDC
:104770000E0000F031F81000FEF7A9FC421CB04812
:104780009047FFF7ADFFFBF721FD00BDFBF70FFDE5
:1047900047F8046D160047F8046D0E0000F01CF891
:1047A000FBF798FDFFF7A1FF4FF40060084001D12F
:1047B000FBF7F5FE47F8046D160010220A4002D000
:1047C000FEF71DFD00BD20220A4002D0FEF768FC66
:1047D00000BDFEF774FB00BD0FB5320040CF3300C3
:1047E00040CF98480168062907D2062041439648E1
:1047F000401803801B0C438082809248016801317D
:1048000001600FBD0FB58F48016806291FD88E487B
:1048100001391DD047F8046D0E00FEF75BFE47F826
:10482000046D0688FEF756FE47F8046D4688FEF7CD
:1048300051FE47F8046D8688FEF74CFE06300139BC
:10484000EDD147F8046D41F20006FEF7CEFD0FBD35
:1048500047F8046D4026FEF7C8FD0FBD00B53000D7
:1048600040CFFEF734FC0188023047F8046D06881B
:1048700042881204164347F8046D868803B4FFF794
:104880003EFF03BC06300139EFD100BDD448000023
:104890000000086576616C756174650000B5FEF70F
:1048A00002F801CF01B440B440CF6848016802B4B7
:1048B00000210160FDF7EAFF00F014F8634802BC34
:1048C000016047F8046D40BC01BC043F3860FDF74F
:1048D000DDFF00BDD0490000000009696E746572FB
:1048E0007072657400B55A4887420BD9FEF791F88B
:1048F00010537461636B20756E646572666C6F77BC
:104900000A0079E0534887420AD2FEF782F80F5333
:104910007461636B206F766572666C6F770A6BE00B
:10492000FFF7D6FEFFF7F2FC002E02D1043740CF8E
:1049300000BD386847F8046D043F3860FFF7BEF8E3
:10494000310040CF320040CF002A15D13868310005
:10495000FCF794FEFFF738FD320040CF002AC2D1A9
:10496000FEF7B7F8FEF755F80C206E6F7420666FEF
:10497000756E642E0A003FE0374B1B68002B1CD17C
:10498000FFF7B3FE30230B40302B0ED1FEF79DF81E
:10499000FEF73FF81220697320636F6D70696C65D4
:1049A0002D6F6E6C792E0A0026E0043740CF47F851
:1049B000046D1600FEF723FC95E7043740CF47F857
:1049C000046D160047F8046D0E00FFF798FE8AE7A5
:1049D000EC490000810009686F6F6B2D7175697477
:1049E00047F8046D1D4E7047284A0000704A0000C9
:1049F0000000047175697400DFF864D0144FFDF78E
:104A0000F4FA18480A2101601348002101600B489C
:104A10000160FBF7A6FC0D480160134801601349D3
:104A200041600E4800688746FDF74BFFFFF75AFFCD
:104A3000FDF7EFFF05206F6B2E0AF5E70800002059
:104A4000280000205C00002060000020E47F01209E
:104A50008C0300208C010020D87F0120D07F012012
:104A60008C040020FC7F0120DC7F0120C40000209A
:104A70008A4A000000000565696E743F47F8046DBE
:104A8000EFF31086013EB64170479A4A00002000BD
:104A90000465696E740062B67047AA4A000020007F
:104AA0000464696E740072B67047C04A000020004A
:104AB00004697073720047F8046DEFF30586704760
:104AC000CC4A00000000036E6F7070470E4B000070
:104AD000000009756E68616E646C656400B5FDF771
:104AE00098FF14556E68616E646C656420496E743D
:104AF000657272757074200047F8046DEFF30586D7
:104B0000FDF7FAFFFDF785FF02210A0000BD204BEB
:104B1000000000000572657365747B487B49016085
:104B20004A4B000081000B6972712D7379737469AF
:104B3000636B47F8046D764E7047DC4A000047F619
:104B4000CC70C2F2010000688746724B0000810001
:104B5000096972712D6661756C7447F8046D6D4E4C
:104B60007047DC4A000047F6C870C2F201000068D6
:104B70008746A04B000081000E6972712D636F6C37
:104B80006C656374696F6E0047F8046D624E704720
:104B9000DC4A000047F6C470C2F201000068874694
:104BA000C84B00008100096972712D657874693005
:104BB00047F8046D594E7047DC4A000047F6C07054
:104BC000C2F2010000688746F04B000081000969CD
:104BD00072712D657874693147F8046D504E7047D5
:104BE000DC4A000047F6BC70C2F20100006887464C
:104BF000184C00008100096972712D657874693262
:104C000047F8046D474E7047DC4A000047F6B8701D
:104C1000C2F2010000688746404C0000810009692B
:104C200072712D657874693347F8046D3E4E704794
:104C3000DC4A000047F6B470C2F201000068874603
:104C4000684C00008100096972712D6578746934BF
:104C500047F8046D354E7047DC4A000047F6B070E7
:104C6000C2F20100006887468E4C0000810007698F
:104C700072712D61646347F8046D2D4E7047DC4AF4
:104C8000000047F6AC70C2F2010000688746B64CDF
:104C900000008100086972712D74696D320047F857
:104CA000046D244E7047DC4A000047F6A870C2F23B
:104CB000010000688746DE4C0000810008697271BF
:104CC0002D74696D330047F8046D1B4E7047DC4A44
:104CD000000047F6A470C2F2010000688746FC5C41
:104CE00002008100086972712D74696D340047F803
:104CF000046D124E7047DC4A000047F6A070C2F205
:104D000001000068874600000CED00E00400FA0591
:104D1000CC7F0120C87F0120C47F0120C07F0120FB
:104D2000BC7F0120B87F0120B47F0120B07F01202B
:104D3000AC7F0120A87F0120A47F0120A07F01205B
:104D4000FF0000FF7EAA997E5100010592002062BB
:104D500003677201108200001100010100000000D1
:104D60000000000000000000000000000000000043
:104D700000000080000000000000000000000000B3
:104D800008000000000000200000000000000000FB
:104D90000000000000000000000000000000000013
:104DA00002000000000000080000000000000000F9
:104DB00000000000000000000000000100000000F2
:104DC00000000400000000000000000000000000DF
:104DD00000000000000000000000000000000000D3
:104DE00000000000000000000000000000000000C3
:104DF00000000000000000000000000000000000B3
:104E000000000000000000000000000000000000A2
:104E10000000000000000000000000000000000092
:104E20000000000000000000000000000000000082
:104E30000000000000000000000000000000000072
:104E40000000000000000000000000000040000022
:104E5000000000000000000000000400000000004E
:104E60000010000000000000000000000000000032
:104E70000000000000000000000001000000000031
:104E8000000400000000000000000000000000001E
:104E90000000000000010000000000000400080005
:104EA0000000000000000000000000000000000002
:104EB00000000000000000000000000000000000F2
:104EC00000000000000000000000002000000000C2
:104ED00000000000000000000000000000000000D2
:104EE00000000000000000000000000000000000C2
:104EF00000000000000000000000000000000000B2
:104F00000000000000000000000000380000000069
:104F10000000000000000000000000000000000091
:104F20000000000000000080000000000000000001
:104F30000000000008000000000000200000004009
:104F40000000000000000000000000000000000061
:104F50000000000002000000000000080000000047
:104F6000000000000000000000000000000000023F
:104F70000000002800000800780040000000000049
:104F80000000000000000000000000000000000021
:104F9000000000000000000300000000000000000E
:104FA00000000000001000000000000040000000B1
:104FB00000000000000000000000000000000000F1
:104FC00000000000000400000000000010000000CD
:104FD00000000000000000000000000000000000D1
:104FE00014000000000000D00000000000000000DD
:104FF00000000000000000000000000000000000B1
:1050000000000000000000000000000000000000A0
:105010000000000000000000000000000000000090
:105020000000000000000000000000000000000080
:105030000000000000000000000000000000000070
:1050400000000000000000000000000C0000000054
:105050000000001000000000000000000000000040
:105060000000000000000000000000000000000040
:105070000000000000000000000000000000000030
:105080000000000000000000000000000000000020
:105090000000000000000000000000000000000010
:1050A0000000000000000000000000000000000000
:1050B00000000000000002000000000000080000E6
:1050C00000000000000000000000000000000000E0
:1050D00000000000000000000000000000020000CE
:1050E00000000000000000000000000000000000C0
:1050F00000000000000000000200000000000000AE
:10510000000000000000000000000000000000009F
:10511000000020000000000000000000000000006F
:10512000000000000000040000000000003000004B
:10513000000000000000000000000000000000006F
:10514000000000000000000000000000000000005F
:10515000000000000000000000000000000000004F
:10516000000000000000000000000000000000003F
:105170000000060000000000000000000000000029
:10518000000000000000000000000000000000001F
:10519000000000000000000000000000000000000F
:1051A00000000000000000000000000000000000FF
:1051B0000000000000000D000100000000000000E1
:1051C00000000000000000000000002000000000BF
:1051D00000000001000000000000000000000000CE
:1051E00000000000000000000000000000100000AF
:1051F000000000000000000000000000000000149B
:105200000000000000000000D400000000000000CA
:10521000000000000000000000000000000000008E
:1052200000008000000100000000000000000000FD
:105230000000000000000000C0000000008000002E
:10524000000000000000000000000000000000005E
:105250000000000000000800000000000000000046
:10526000000000000000000000000000200000001E
:1052700000040030003400000000000000000000C6
:10528000000000000000000000000000000000001E
:105290000580000000000000000000000000000089
:1052A00000000000000000000000000000020000FC
:1052B00000000000000000000000000000000000EE
:1052C00000000000000000000000000000000000DE
:1052D00000000000000000000000000000000000CE
:1052E0007800000000000000000000000000000046
:1052F000000000000000000000000000400000006E
:10530000000000000000000000000000000000009D
:10531000000000000000004000000000000000004D
:10532000000000000000000000000000000000007D
:105330000400000060000000000000000000000009
:105340000000000000000000000000040000000059
:10535000000000000000000000000000000000004D
:10536000000000000000000000000001000000003C
:10537000000000000000000000100000000000001D
:1053800040000000000F00000000000000000000CE
:105390000000000000000000000400000000007099
:1053A00010000000000000000000000000000000ED
:1053B00000000000040000000000001000000000D9
:1053C00000000000000000000000000000000000DD
:1053D000000000000000800000000000000000004D
:1053E00000000000005800000000000000008000E5
:1053F000008000000000000000000000000000002D
:1054000000000000000E000000000800F80000008E
:10541000000000000000000000000000000000008C
:1054200000000000000800710040000000000000C3
:10543000000000000000000000000000000000006C
:105440000000000000000000000800000000010053
:105450000000000000000000000000000000000448
:10546000020000000000000000000000000000003A
:10547000000000000000000000000000000000002C
:10548000000000000000000000000000000000001C
:10549000000000000000000000000000000000000C
:1054A00000000000000000000000000000000000FC
:1054B00000000000000000000005002000000000C7
:1054C000000000000000000000000010022040006A
:1054D00000000000000000000000000000001000BC
:1054E00000000000000000000000000000000000BC
:1054F00000000000000000000000000000000000AC
:10550000000000000000000000000000000000009B
:10551000000000000000000000000000000000008B
:105520000000001800000000000000000000000063
:1055300000000000000000060000200000005000F5
:10554000000000000000000000000000000000005B
:10555000000000000000000040000000000001000A
:105560000000000000000200000000000000000039
:10557000000000000000000000000000000000002B
:10558000000000000000000000000000000000001B
:10559000000000000000000000000000000000000B
:1055A0000000000000000C70C0000020000000009F
:1055B00000000000000000000000000000000000EB
:1055C00000000000000000000000000000000000DB
:1055D00000000001000000000000000000000000CA
:1055E00000000000000000000000000000000000BB
:1055F000000000000000000000000000001000504B
:10560000000000000000000000000000000000009A
:105610000000000002000000000000000000000088
:10562000000000000000000000000000000000007A
:10563000000000000000000000000000000000006A
:10564000000000000000000000000000000000005A
:10565000000000000000000000000000000000004A
:105660000000000000000000000020000800000012
:10567000000000000000000000000000000000002A
:1056800000034000000000000000000000000000D7
:1056900000000000000000000000000000000040CA
:1056A00000000000000100000000000000000000F9
:1056B00000000000000000000000000000000000EA
:1056C00000000000000000000000000000000000DA
:1056D00000000000000000000000000000000000CA
:1056E000000000000000000000000000000030008A
:1056F0000028000000000000000000000000000082
:105700000000000000000000000000000000000099
:105710000000000000000000000000000000000089
:105720000000000000000000000000000000000079
:105730000000000000000000000000000000000069
:105740000000000000000000000000000000000059
:10575000000003800000000000000101C0001000F4
:105760000000000000000000000000000000000039
:105770000000000000000000000000000000000029
:105780000000000000000000000000000000000019
:105790000000000000000000000000000000000009
:1057A00000000000000000000000000000000000F9
:1057B00000000000000000000000000000000000E9
:1057C000000000000000002E70E008000000000053
:1057D00000020000000000000000000000000000C7
:1057E00000000000000000000000000000000000B9
:1057F00000000000000000000000000000000000A9
:105800000000000000000000000000000000000098
:105810000000000000000000000000000000000088
:105820000000000000000000000000000000000078
:10583000000000002C4240000000000000000000BA
:1058400000000000000000000000000000A00000B8
:105850000000000000000000000000000000000048
:105860000000000000000000000000000000000038
:105870000000000000000000000000000000000028
:105880000000000000000000000000000000000018
:105890000000000000000000000000000000000008
:1058A00000040200000010000000000200000000E0
:1058B00000000000000000000000000000000000E8
:1058C0004000000000000000000000000000000098
:1058D00000000000000000000000000000000000C8
:1058E00000000000000000000000000000000000B8
:1058F00000000000000000000000000000000000A8
:10590000000000000000000000000000000026026F
:105910004D0000200000000000000000000000001A
:105920000000000000000000000000000000000077
:105930000000000000000000000000000000000067
:105940000000000000000000000000000000000057
:105950000000000000000000000000000000000047
:105960000000000000000000000000000000000037
:105970000000000000000000000000000600000021
:105980000000000000000000000000000000000017
:105990000000000000000000000000000000000007
:1059A00000000000000000000000000000000000F7
:1059B00000000000000000000000000000000000E7
:1059C00000000000000000000000000000000000D7
:1059D00000000000000000000000000000000000C7
:1059E000000000000000000004364C000000000031
:1059F00000000000000000000000000000000000A7
:105A00000000000000000040000000000000000056
:105A10000000000000000000000000000000000086
:105A20000000000000000000000000000000000076
:105A30000000000000000000000000000000001056
:105A40000000000000000000000000000000000056
:105A50000000000C0000000000000000000000003A
:105A600000000000000000280000000000300000DE
:105A70000000000000000000000000000000000026
:105A80000000000000000000000000000000000016
:105A90000000000000000000000000000000000006
:105AA00000000000000000000000000000000000F6
:105AB00000000000000000000000000000000000E6
:105AC000040200004F000000000000000000000081
:105AD00000000000000000000000100000000000B6
